:100000000C94A7010C94140B0C94E90A0C94BE0AEE
:100010000C94930A0C94680A0C9403100C94D80F57
:100020000C94AD0F0C94D8010C94D8010C94D80109
:100030000C94D8010C94D8010C94D8010C94D801DC
:100040000C94D8010C94D8010C94D8010C94D801CC
:100050000C94D8010C94D8010C94D8010C94630F23
:100060000C94D8010C94A1040C9477040C94D8013E
:100070000C94D8010C94D8010C94D8010C94D8019C
:100080000C94D8010C94D8010C94D8010C94D8018C
:100090000C94D8010C94D8010C94D8010C94D8017C
:1000A0000C94D8010C94D8010C94D8010C94D8016C
:1000B0000C94D8010C94D8010C94D8010C94D8015C
:1000C0000C94D8010C94D8010C94D8010C94D8014C
:1000D0000C94D8010C94D8010C94D8010C94D8013C
:1000E0000C94D801D60DD90DC80DCC0DD00D100E25
:1000F000DD0DE10DE70DEB0DEF0DF50DF90DFD0D2E
:10010000100E030E070E0B0E890E8E0E930E9D0E13
:10011000A70E200FB10EB90EC10ECB0ED50EDF0EFD
:10012000EE0EF80E200F020F0C0F160F084AD73BE9
:100130003BCE016E84BCBFFDC12F3D6C74319ABDB6
:1001400056833DDA3D00C77F11BED9E4BB4C3E91DA
:100150006BAAAABE000000803F072C7AA5BA6CC526
:1001600090DA3B9365FC8BBC53F810FD3C569283B0
:100170004DBD879D3AB63DCBC9BF5BBE73DA0FC993
:100180003F000C94B10E0C94890E0C945E030C94F9
:10019000330A0C94C80D0C940B0E0C94070E0C949F
:1001A0009C030C94A70E0C94020F0C94D50E0C9487
:1001B0000C0F0C94EF0D0C94D8050C94030E0C94BA
:1001C00001020C94F80E0C94DF0E0C94F50D0C94B7
:1001D000F8120C94ED010C94930E0C94DD0D0C941C
:1001E000D60D0C94B90E0C94E10D0C94CB0E0C941E
:1001F000FD0D0C940D040C94F90D0C9440040C941A
:10020000DA030C94C10E0C948E0E0C94CC0D0C944D
:10021000DE010C94EE0E0C94100E0C943C020C9427
:1002200083020C940F020C94200F0C94160F0C9464
:10023000320A0C94D00D0C94D90D0C949D0E0C9494
:10024000EB0D0C94E70D00002100240027002A008C
:100250002D003000330001010000040107010A01F4
:1002600000002200250028002B002E003100340061
:1002700002010000050108010B0105050505070540
:1002800008080808020202020A0A08080404040412
:10029000010101010101010103030303030303033E
:1002A000040707070C0C0C0C0C0C0C0C02020202CD
:1002B00006060606060606060B0B0B0B0B0B0B0BB6
:1002C0000102102020080810204010204080020168
:1002D000020108040201010204081020408080404D
:1002E000201008040201800402018040201008044C
:1002F00002010804020101020408102040800102EA
:1003000004081020408000000A0B02090C0D0E08A2
:1003100007030401000000000000000000000000CE
:1003200000000000000000000000000000000000CD
:10033000000012111000000000000000000000008A
:10034000000000000000000000000000F81211246E
:100350001FBECFEFD1E2DEBFCDBF00E00CBF25E076
:10036000A6EAB4E001C01D92A939B207E1F714E092
:10037000A0E0B2E0E2E9FDE200E00BBF02C00790BE
:100380000D92A63AB107D9F711E0C7EAD1E000E033
:1003900006C021970109802FFE010E94A616C63AC9
:1003A000D10780E00807A9F70E942E100C94C71609
:1003B0000C940000089580E090E00895FC01538DB6
:1003C000448D252F30E0842F90E0821B930B54172F
:1003D00010F0CF96089501970895FC01918D828DBC
:1003E000981761F0828DDF01A80FB11D5D968C9189
:1003F000928D9F5F9F73928F90E008958FEF9FEF94
:100400000895FC01918D828D981731F0828DE80F4F
:10041000F11D858D90E008958FEF9FEF0895FC0109
:10042000918D228D892F90E0805C9F4F821B9109D6
:100430008F7399270895FC01848DDF01A80FB11DEA
:10044000A35ABF4F2C91848D90E001968F7399270A
:10045000848FA689B7892C93A089B1898C918064F7
:100460008C93938D848D981306C00288F389E02DB8
:1004700080818F7D80830895EF92FF920F931F9369
:10048000CF93DF93EC0181E0888F9B8D8C8D981347
:1004900005C0E889F989808185FD24C0F62E0B8D81
:1004A00010E00F5F1F4F0F731127E02E8C8DE812A5
:1004B0000CC00FB607FCFACFE889F989808185FF67
:1004C000F5CFCE010E941B02F1CF8B8DFE01E80F0C
:1004D000F11DE35AFF4FF0820B8FEA89FB8980817F
:1004E000806207C0EE89FF896083E889F98980818D
:1004F0008064808381E090E0DF91CF911F910F9124
:10050000FF90EF900895CF93DF93EC01888D8823BF
:10051000C9F0EA89FB89808185FD05C0A889B98970
:100520008C9186FD0FC00FB607FCF5CF808185FF4B
:10053000F2CFA889B9898C9185FFEDCFCE010E94B9
:100540001B02E7CFDF91CF91089580E090E0892BE7
:1005500021F00E945E0A811125C080E090E0892B85
:1005600041F080E090E0892B21F00E940000811191
:100570001CC080E090E0892B41F080E090E0892B66
:1005800021F00E940000811113C080E090E0892BCF
:10059000A1F080E090E0892B81F00E9400008111A1
:1005A0000AC008950E940000D8CF0E940000E1CF49
:1005B0000E940000EACF0C94000008958A31910552
:1005C00011F154F486319105A1F0489731F57093FB
:1005D000AB046093AA0408958E31910579F08032BE
:1005E0009105B1F04C97C9F47093AF046093AE04D9
:1005F00008957093A9046093A80408957093B304B8
:100600006093B20408957093B7046093B60408959C
:100610007093B9046093B804089582E292E00C9458
:100620000A0C0F931F93CF93DF93EC01062F142F27
:100630008A31910511F154F486319105A1F0489762
:1006400031F51092AB041092AA0425C08E319105A9
:1006500079F080329105B1F04C97C9F41092AF0453
:100660001092AE0418C01092A9041092A80413C0EE
:100670001092B3041092B2040EC01092B7041092FC
:10068000B60409C01092B9041092B80404C082E202
:1006900092E00E940A0C60E08C2F0E94A70D60E09F
:1006A000802F0E94A70D60E0812F0E94A70D10925D
:1006B000BA04DF91CF911F910F9108958091C104E9
:1006C0009091C2040197F1F02091C7043091C804C1
:1006D0008091C9049091CA042817390761F4809168
:1006E000BA04811108C049E050E061E270E080E2A4
:1006F00090E00C9411038091B8049091B904823079
:10070000910531F48091C7049091C80401960EC000
:10071000019789F48091C7049091C80418161906AE
:1007200054F48091C7049091C80401979093C80431
:100730008093C704089508958091BB049091BC04F0
:100740000197F1F02091C3043091C4048091C50455
:100750009091C6042817390761F48091BA04811179
:1007600008C046E050E06BE170E08AE190E00C9454
:1007700011038091B6049091B7048230910531F451
:100780008091C3049091C40401960EC0019789F42E
:100790008091C3049091C4041816190654F48091F2
:1007A000C3049091C40401979093C4048093C3043C
:1007B000089508958091B4049091B504892B41F473
:1007C00048E050E06FE170E08EE190E00C9411039E
:1007D0008091B2049091B3048230910531F48091FC
:1007E000B4049091B50401960EC0019789F48091EC
:1007F000B4049091B5041816190674F48091B404E9
:100800009091B50401979093B5048093B404089532
:1008100085E392E00C940A0C08958091B0049091C5
:10082000B104892B41F447E050E06DE170E08CE1C8
:1008300090E00C9411038091AE049091AF0482304B
:10084000910531F48091B0049091B10401960EC0ED
:10085000019789F48091B0049091B104181619069B
:1008600074F48091B0049091B10401979093B10415
:100870008093B00408958DE592E00C940A0C0895DD
:100880008091BF049091C0040197F1F02091CF04B2
:100890003091D0048091D1049091D2042817390767
:1008A00061F48091BA04811108C044E050E067E12E
:1008B00070E086E190E00C9411038091A80490917F
:1008C000A9048230910531F48091CF049091D00435
:1008D000019607C0019751F48091CF049091D00404
:1008E00001979093D0048093CF04089508951F92A8
:1008F0000F920FB60F9211240BB60F922F933F93C6
:100900004F935F936F937F938F939F93AF93BF9317
:10091000EF93FF9383EF94E00E941B02FF91EF910E
:10092000BF91AF919F918F917F916F915F914F9107
:100930003F912F910F900BBE0F900FBE0F901F9005
:1009400018951F920F920FB60F9211240BB60F92AB
:100950002F938F939F93EF93FF93E0910305F09173
:1009600004058081E0910905F0910A0582FD12C01D
:10097000908180910C058F5F8F7320910D058217F8
:1009800051F0E0910C05F0E0ED50FB4F958F809316
:100990000C0501C08081FF91EF919F918F912F9164
:1009A0000F900BBE0F900FBE0F901F9018956F9277
:1009B0007F928F929F92AF92BF92CF92DF92EF92EF
:1009C000FF920F931F93CF93DF934C015B01EA01DA
:1009D000122F81E090E0F401918380838091BF0425
:1009E0009091C0040E94180C66246A94762CF5013C
:1009F0008081918186159705A9F1F501608071804C
:100A0000B701CE010E94DE02B601802F0E94600E67
:100A1000F2E0EF16F10431F461E08C2F0E94A70D93
:100A200060E009C081E0E816F10441F460E08C2F39
:100A30000E94A70D61E0812F0E94A70D64E670E07F
:100A400080E090E00E94290F60E08C2F0E94A70DAB
:100A500060E0812F0E94A70D60E070E0802F0E946F
:100A6000600EC5CFF2E0EF16F104A1F4C631D10556
:100A700031F0C831D10549F482E799E002C086E43B
:100A80009AE0F5019183808308C083E892E00E9498
:100A90000A0C03C0F501118210828091BF0490916D
:100AA000C0040E94180CF40111821082CA31D105D1
:100AB000D1F044F4C631D10581F06897D1F48DEAC4
:100AC00092E019C0CE31D10559F0C032D10571F094
:100AD0006C9779F482EC92E00EC085E992E00BC04D
:100AE00087ED92E008C08FEE92E005C082E093E0CF
:100AF00002C085E193E0DF91CF911F910F91FF90AC
:100B0000EF90DF90CF90BF90AF909F908F907F90AD
:100B10006F900C940A0CCF92DF92EF920F93CF93C9
:100B2000DF93E9011092BA04FC0171836083FA013A
:100B300080819181861797079CF48AE293E00E9456
:100B40000A0C62E070E0CE010E94DE02B6018E2D3A
:100B50000E94600E61E08C2F0E94A70D60E018C01B
:100B6000FA018081918168177907DCF480E393E0D2
:100B70000E940A0C61E070E0CE010E94DE02B60124
:100B80008E2D0E94600E60E08C2F0E94A70D61E008
:100B9000802FDF91CF910F91EF90DF90CF900C9449
:100BA000A70DDF91CF910F91EF90DF90CF90089537
:100BB000CF92DF92EF92FF920F931F938091BD042B
:100BC0009091BE04019701F58091CB049091CC04E3
:100BD00001969093CC048093CB046091AC04709107
:100BE000AD046A5D7D4F8CE3C82ED12C99E0E92ECF
:100BF000F12C01E210E020E230E047EC54E089EC17
:100C000094E00E948B052DC02091CB043091CC0440
:100C10008091CD049091CE042817390791F48091EA
:100C2000BA0481110EC045E050E069E170E088E14E
:100C300090E01F910F91FF90EF90DF90CF900C9478
:100C400011038091AA049091AB0482309105C9F4FC
:100C50008091CB049091CC0401969093CC04809326
:100C6000CB048091CB049091CC0463E070E00E94AF
:100C70007016892B21F58091AC049091AD040196FA
:100C80001AC00197E1F48091CB049091CC040197B4
:100C90009093CC048093CB048091CB049091CC04AE
:100CA00063E070E00E947016892B49F48091AC04D7
:100CB0009091AD0401979093AD048093AC041F9183
:100CC0000F91FF90EF90DF90CF900895CF93DF9337
:100CD00085E393E00E94490C83EF94E00E940F02A9
:100CE000892BD1F30E942E0DEB01CB010E94180C31
:100CF000C43983E0D80778F08EE593E00E940A0CAF
:100D000085E393E00E94490C83EF94E00E940F0278
:100D1000892BD1F3E7CFCE01DF91CF910895CF9307
:100D2000DF938EE793E00E94490C83EF94E00E94EA
:100D30000F02892BD1F30E942E0DEB01CB010E94F3
:100D4000180CCD3B82E0D80778F08EE593E00E9446
:100D50000A0C8EE793E00E94490C83EF94E00E9416
:100D60000F02892BD1F3E7CFCE01DF91CF91089508
:100D7000CF93DF9387EA93E00E94490C83EF94E0DE
:100D80000E940F02892BD1F30E942E0DEB01CB01A3
:100D90000E94180CCE01885A9D4F813B944078F0F8
:100DA0008EE593E00E940A0C87EA93E00E94490CCA
:100DB00083EF94E00E940F02892BD1F3E5CFCE019F
:100DC000DF91CF9108952F923F924F925F926F9251
:100DD0007F928F929F92AF92BF92CF92DF92EF92CB
:100DE000FF920F931F93CF93DF93CDB7DEB7A297F8
:100DF0000FB6F894DEBF0FBECDBF3E8F2D8F17010B
:100E0000DA8EC98EB8A2AF8E9AA289A288AD99ADAA
:100E10009C8F8B8FFB01C080D180E280F380FA0130
:100E200080809180A280B380A7019601C701B6019E
:100E30000E948B132B013C01A5019401C501B40153
:100E40000E948B139B01AC01C301B2010E94751477
:100E50000E9412162B013C0120E030E0A901C701DD
:100E6000B6010E94FF1518160CF08DC0A70196015F
:100E7000C501B4010E9410150E94E11469837A83B0
:100E80008B839C83A3019201C301B2010E948B1347
:100E90006B017C0120E030E04DEF53E4C301B2016F
:100EA0000E948B139B01AC01C701B6010E94101573
:100EB0000E9463146D837E838F8398879B01AC01AE
:100EC00069817A818B819C810E94741420EE3EE2BC
:100ED00045E652E40E948B139B01AC0160E070E098
:100EE00084E393E40E947414698B7A8B8B8B9C8BC4
:100EF000A701960160E079E08AEF97E40E947414FC
:100F000020E039E04AEF57E40E9410150E94631474
:100F100020EE3EE245E652E40E948B1369877A8711
:100F20008B879C8720EE3EE245E652E46D817E8110
:100F30008F8198850E948B139B01AC0160E070E06B
:100F400084E393E40E94741429853A854B855C857B
:100F50000E9474146D877E878F87988B20EE3EE207
:100F600045E652E469817A818B819C810E948B13D2
:100F700020E030E044EB52E40E9475142D853E855C
:100F80004F855889BDC020E030E0A901C701B601F6
:100F90000E94251318160CF4B9C0A7019601C501CB
:100FA000B4010E9410156B017C0120E030E0A90122
:100FB0000E94FF15181624F0F7FAF094F7F8F09451
:100FC000C701B6010E94E11469837A838B839C83F5
:100FD000A3019201C301B2010E948B136B017C013A
:100FE00020E030E04DEF53E4C301B2010E948B13C7
:100FF0009B01AC01C701B6010E9410150E94631449
:101000006D837E838F8398879B01AC0169817A8190
:101010008B819C810E94741420EE3EE245E652E4EE
:101020000E948B13698B7A8B8B8B9C8BA70196010B
:1010300060E079E08AEF97E40E94741420E039E0E0
:101040004AEF57E40E9410150E94631420EE3EE21E
:1010500045E652E40E948B139B01AC0160E070E016
:1010600084EB93E40E94741469877A878B879C874A
:1010700020EE3EE245E652E46D817E818F819885C7
:101080000E948B139B01AC0160E070E084E393E469
:101090000E9474146B017C0129853A854B855C851F
:1010A00060E070E084EB93E40E9474149B01AC0157
:1010B000C701B6010E9474146D877E878F87988B55
:1010C0009B01AC0160E070E084E393E40E9474143F
:1010D0006B017C0120EE3EE245E652E469817A81B3
:1010E0008B819C810E948B139B01AC0160E070E0BE
:1010F00084EB92E40E9474149B01AC01C701B60119
:101100000E9475146D8B7E8B8F8B988F83ED93E08F
:101110000E94490C42E069817A818B819C810E9406
:101120004B0C82EE93E00E940A0C87EE93E00E9443
:10113000490C42E06D817E818F8198850E944B0C25
:1011400082EE93E00E940A0C80EF93E00E94490C2B
:1011500042E069897A898B899C890E944B0C8AEFCD
:1011600093E00E940A0C82E094E00E94490C42E065
:1011700069857A858B859C850E944B0C8AEF93E06C
:101180000E940A0C8CE094E00E94490C6D857E85DB
:101190008F8598890E941F0D85E194E00E94490C7B
:1011A0006D897E898F89988D0E941F0DED8DFE8D32
:1011B00060817181072E000C880B990B0E942C1303
:1011C00027EE3CE848E85EE30E94101520E030E09E
:1011D00040E05FE30E948B136B017C0120E030E074
:1011E000A9010E94FF1520E030E040E05FE387FDA9
:1011F00005C0C701B6010E94751404C0C701B6013D
:101200000E9474140E948215EB8DFC8D71836083A3
:10121000EF8DF8A180819181919581959109E9A146
:10122000FAA19183808320E030E84CEF53E4C301BE
:10123000B2010E94251318160CF4F8C025E43AE216
:101240004CE05DE369897A898B899C890E9410153D
:1012500020E030E040E05FE30E948B136B017C01F3
:1012600020E030E0A9010E94FF1520E030E040E0DE
:101270005FE387FD05C0C701B6010E94751404C075
:10128000C701B6010E9474140E948215F80171838F
:10129000608325E43AE24CE85DE369857A858B85D5
:1012A0009C850E94101520E030E040E05FE30E9442
:1012B0008B136B017C0120E030E0A9010E94FF1537
:1012C00020E030E040E05FE387FD05C0C701B601E4
:1012D0000E94751404C0C701B6010E9474140E94D4
:1012E0008215F1017183608326EA34E442ED5DE307
:1012F0006D897E898F89988D0E94101520E030E0DD
:1013000040E05FE30E948B136B017C0120E030E042
:10131000A9010E94FF1520E030E040E05FE387FD77
:1013200005C0C701B6010E94751404C0C701B6010B
:101330000E9474140E948215E98DFA8D7183608376
:101340008FE194E00E94490CC301B2010E941F0D7D
:1013500084E294E00E94490C60E070E0CB010E94BE
:101360001F0D8BE294E00E94490C60E070E0CB011D
:101370000E941F0D82E394E00E94490C69897A89DA
:101380008B899C890E941F0D8AE394E00E94490C7E
:1013900069857A858B859C850E941F0D82E494E087
:1013A0000E94490C6D897E898F89988D0E941F0D3E
:1013B0008AE494E00E94490CF801808191810E94A6
:1013C000180C83E594E00E94490CF1018081918121
:1013D0000E94180C8CE594E00E94490CE98DFA8D6E
:1013E000808191810E94180C83E694E00E94490C50
:1013F000EB8DFC8D80819181A2960FB6F894DEBFB3
:101400000FBECDBFDF91CF911F910F91FF90EF9055
:10141000DF90CF90BF90AF909F908F907F906F9014
:101420005F904F903F902F900C94180C89E694E0B9
:10143000A2960FB6F894DEBF0FBECDBFDF91CF915D
:101440001F910F91FF90EF90DF90CF90BF90AF90E2
:101450009F908F907F906F905F904F903F902F90D4
:101460000C940A0C0895CF92DF92EF92FF920F93A3
:101470001F93CF93DF936C017A018B01C0E0D0E022
:10148000CE15DF0589F0D8016D918D01D601ED9162
:10149000FC910190F081E02DC6011995892B11F482
:1014A0007E0102C02196ECCFC701DF91CF911F9141
:1014B0000F91FF90EF90DF90CF90089583EF94E02D
:1014C0000E940F0221E0892B09F420E0822F089569
:1014D0001F920F920FB60F9211240BB60F922F93FB
:1014E0003F934F935F936F937F938F939F93AF93AC
:1014F000BF93EF93FF93E0910002F09101021995E1
:10150000FF91EF91BF91AF919F918F917F916F91DB
:101510005F914F913F912F910F900BBE0F900FBE97
:101520000F901F9018951F920F920FB60F921124D3
:101530000BB60F922F933F934F935F936F937F93CD
:101540008F939F93AF93BF93EF93FF93E0910A0222
:10155000F0910B021995FF91EF91BF91AF919F917F
:101560008F917F916F915F914F913F912F910F904C
:101570000BBE0F900FBE0F901F9018951F920F92E9
:101580000FB60F9211240BB60F922F933F934F93E8
:101590005F936F937F938F939F93AF93BF93EF93DB
:1015A000FF93E0910802F09109021995FF91EF91E4
:1015B000BF91AF919F918F917F916F915F914F916B
:1015C0003F912F910F900BBE0F900FBE0F901F9069
:1015D00018951F920F920FB60F9211240BB60F920F
:1015E0002F933F934F935F936F937F938F939F932B
:1015F000AF93BF93EF93FF93E0910602F091070240
:101600001995FF91EF91BF91AF919F918F917F912C
:101610006F915F914F913F912F910F900BBE0F9063
:101620000FBE0F901F9018951F920F920FB60F923A
:1016300011240BB60F922F933F934F935F936F93A9
:101640007F938F939F93AF93BF93EF93FF93E0911B
:101650000402F09105021995FF91EF91BF91AF91AE
:101660009F918F917F916F915F914F913F912F91BA
:101670000F900BBE0F900FBE0F901F901895E0912A
:10168000F304F091F4040190F081E02D682F83EFD2
:1016900094E019942FB7F894809195059091960550
:1016A000A0919705B09198052FBF8093FB0490936C
:1016B000FC04A093FD04B093FE04E091F304F091C8
:1016C000F4040484F585E02D83EF94E0199597FFE9
:1016D00026C02FB7F8948091950590919605A0911A
:1016E0009705B09198052FBF4091FB045091FC04E1
:1016F0006091FD047091FE04841B950BA60BB70B43
:101700004091F7045091F8046091F9047091FA0443
:1017100084179507A607B70780F28FEF9FEF08950C
:101720003FB7F8948091910590919205A09193050F
:10173000B091940526B5A89B05C02F3F19F00196DE
:10174000A11DB11D3FBFBA2FA92F982F8827820F47
:10175000911DA11DB11DBC01CD0142E0660F771F97
:10176000881F991F4A95D1F70895009769F0FC01E9
:1017700001900020E9F73197AF01481B590BBC01DC
:1017800083EF94E00C94330A80E090E008958F9208
:101790009F92AF92BF920F931F93CF93DF93CDB7DA
:1017A000DEB7A1970FB6F894DEBF0FBECDBF19A26A
:1017B000423008F44AE08E010F5D1F4F842E912CB9
:1017C000A12CB12CA50194010E948416E62FB90129
:1017D000CA0101501109EA3014F4E05D01C0E95C6E
:1017E000D801EC93232B242B252B61F7C8010E94F1
:1017F000B50BA1960FB6F894DEBF0FBECDBFDF913B
:10180000CF911F910F91BF90AF909F908F900895AF
:101810000E94C216CF93DF930E94B50BEC0187E9BB
:1018200094E00E94B50B8C0F9D1FDF91CF9108951E
:10183000CF92DF92EF92FF92CF93DF936C01990FDB
:10184000EE08FF08F7FE12C08DE20E943F0BEC018C
:1018500066277727CB016C197D098E099F094AE01D
:101860000E94C70B7C01EC0EFD1E06C04AE0C701BA
:10187000B6010E94C70B7C0187E994E00E94B50B7A
:101880008E0D9F1DDF91CF91FF90EF90DF90CF9055
:1018900008950C94B50B4F925F926F927F928F9246
:1018A0009F92AF92BF92CF92DF92EF92FF926B0125
:1018B0007C01B42E9B01AC010E945616882319F0BE
:1018C0008AE994E027C026013701E89477F82FEFE2
:1018D0003FEF4FE75FE7C301B2010E945616811147
:1018E0000DC02FEF3FEF4FE75FE7C301B2010E944A
:1018F000251318161CF48EE994E00CC02FEF3FEF6F
:101900004FE75FE4C701B6010E94FF15181684F483
:1019100082EA94E0FF90EF90DF90CF90BF90AF907D
:101920009F908F907F906F905F904F900C94B50B2D
:101930002FEF3FEF4FE75FECC701B6010E94251381
:1019400087FDE6CF20E030E0A901C701B6010E9483
:10195000251387FF09C08DE20E943F0B4C01F7FA67
:10196000F094F7F8F09402C0812C912CA12C60E047
:1019700070E080E09FE3AB1441F020E030E040E213
:1019800051E40E941015A394F6CF9B01AC01C7014E
:10199000B6010E9475142B013C010E9489156B0150
:1019A0007C010E942A139B01AC01C301B2010E9479
:1019B00074142B013C014AE0C701B6010E94C70B19
:1019C0007C01E80CF91CBB2029F08EE20E943F0B41
:1019D000E80EF91EDB2CDD2021F120E030E040E2B2
:1019E00051E4C301B2010E948B132B013C010E9400
:1019F00089154B01A12CB12C4AE0C501B4010E940C
:101A0000C70BE80EF91EC501B4010E942A139B0101
:101A1000AC01C301B2010E9474142B013C01DA94A1
:101A2000DACFC701FF90EF90DF90CF90BF90AF90DB
:101A30009F908F907F906F905F904F900895CF937D
:101A4000DF9342E00E944B0CEC0187E994E00E9496
:101A5000B50B8C0F9D1FDF91CF910895FF920F93CF
:101A60001F93CF93DF9300D01F92CDB7DEB70E94B4
:101A70004A0BFC0197FD11C08D32910591F0C09782
:101A80000A9778F0E091F304F091F4040284F3856E
:101A9000E02D83EF94E01995EACF60E070E0CB0190
:101AA0004CC020E030E0A901F12CE130F105F1F06B
:101AB000ED32F105C9F0CF01C0970A97B8F4AAE05A
:101AC000B0E00E9449148F01FF0F220B330BDC01A1
:101AD000CB01800F911FA21FB31F9C01AD012053AA
:101AE00031094109510902C0FF24F394E091F30444
:101AF000F091F4040284F385E02D83EF94E02983D0
:101B00003A834B835C8319950E944A0BFC01C09772
:101B100029813A814B815C810A9738F2E130F105E5
:101B200021F2FF2041F066277727CB01621B730B60
:101B3000840B950B02C0CA01B9010F900F900F9052
:101B40000F90DF91CF911F910F91FF900895362F45
:101B500090E0FC01EA5FFC4F4491FC01E054FD4F32
:101B60002491FC01E658FD4F9491992309F46BC030
:101B7000442309F455C050E0FA013197E231F105F0
:101B800008F04EC08827EE58FF4F8F4F0C94A616D2
:101B9000809180008F7707C0809180008F7D03C087
:101BA00080918000877F809380003AC084B58F77D2
:101BB00002C084B58F7D84BD33C08091B0008F7723
:101BC00003C08091B0008F7D8093B00029C08091C8
:101BD00090008F7707C0809190008F7D03C0809127
:101BE0009000877F809390001BC08091A0008F772A
:101BF00007C08091A0008F7D03C08091A000877FE7
:101C00008093A0000DC0809120018F7707C0809144
:101C100020018F7D03C080912001877F8093200168
:101C2000E92FF0E0EE0FFF1FE05AFD4FA591B491B0
:101C30008FB7F894EC91311103C020952E2301C089
:101C40002E2B2C938FBF0895CF93DF9390E0FC0150
:101C5000E054FD4F2491FC01E658FD4F8491882308
:101C600061F190E0880F991FFC01EA5BFD4FC5917F
:101C7000D491FC01E05AFD4FA591B491611109C0C6
:101C80009FB7F8948881209582238883EC912E2336
:101C90000BC0623061F49FB7F8943881822F809531
:101CA00083238883EC912E2B2C939FBF06C08FB784
:101CB000F894E8812E2B28838FBFDF91CF91089570
:101CC0001F93CF93DF93182FEB0161E00E94240E46
:101CD000209711F460E004C0CF3FD10539F461E0F2
:101CE000812FDF91CF911F910C94A70DE12FF0E090
:101CF000EA5FFC4FE4914E2F50E0FA013197E23158
:101D0000F10508F09DC08827EC57FF4F8F4F0C94CA
:101D1000A61684B5806884BDC7BD97C084B58062AF
:101D200084BDC8BD92C0809180008068809380008F
:101D3000D0938900C093880088C080918000806221
:101D400080938000D0938B00C0938A007EC08091E6
:101D50008000886080938000D0938D00C0938C00B9
:101D600074C08091B00080688093B000C093B300CD
:101D70006CC08091B00080628093B000C093B400CA
:101D800064C080919000806880939000D093990007
:101D9000C09398005AC08091900080628093900018
:101DA000D0939B00C0939A0050C0809190008860AF
:101DB00080939000D0939D00C0939C0046C080917A
:101DC000A00080688093A0008091A0008F7B80930A
:101DD000A000D093A900C093A80037C08091A000B4
:101DE00080628093A000D093AB00C093AA002DC066
:101DF0008091A00088608093A000D093AD00C09334
:101E0000AC0023C080912001806880932001D09392
:101E10002901C093280119C080912001806280931C
:101E20002001D0932B01C0932A010FC08091200183
:101E3000886080932001D0932D01C0932C0105C0B0
:101E4000C038D1050CF04BCF45CFDF91CF911F911A
:101E500008958F929F92AF92BF92CF92DF92EF92AE
:101E6000FF926B017C010E94900B4B015C01C1143D
:101E7000D104E104F104F1F00E94900BDC01CB01EC
:101E800088199909AA09BB09883E9340A105B105A3
:101E900070F321E0C21AD108E108F10888EE880E3B
:101EA00083E0981EA11CB11CC114D104E104F1040B
:101EB00019F7DDCFFF90EF90DF90CF90BF90AF90FC
:101EC0009F908F9008951F920F920FB60F9211243A
:101ED0002F933F938F939F93AF93BF9380919505DB
:101EE00090919605A0919705B09198053091900535
:101EF00023E0230F2D3720F40196A11DB11D05C04D
:101F000026E8230F0296A11DB11D20939005809312
:101F1000950590939605A0939705B09398058091A9
:101F2000910590919205A0919305B0919405019629
:101F3000A11DB11D8093910590939205A0939305E7
:101F4000B0939405BF91AF919F918F913F912F9145
:101F50000F900FBE0F901F9018951F920F920FB603
:101F60000F9211240BB60F922F933F934F935F93D1
:101F70006F937F938F939F93AF93BF93EF93FF9351
:101F8000E0910E02F0910F021995FF91EF91BF9130
:101F9000AF919F918F917F916F915F914F913F9101
:101FA0002F910F900BBE0F900FBE0F901F901895A2
:101FB0001F920F920FB60F9211240BB60F922F9310
:101FC0003F934F935F936F937F938F939F93AF93C1
:101FD000BF93EF93FF93E0910C02F0910D021995DE
:101FE000FF91EF91BF91AF919F918F917F916F91F1
:101FF0005F914F913F912F910F900BBE0F900FBEAD
:102000000F901F9018951F920F920FB60F921124E8
:102010000BB60F922F933F934F935F936F937F93E2
:102020008F939F93AF93BF93EF93FF93E09102023F
:10203000F09103021995FF91EF91BF91AF919F919C
:102040008F917F916F915F914F913F912F910F9061
:102050000BBE0F900FBE0F901F901895CF93DF937C
:10206000CDB7DEB72A970FB6F894DEBF0FBECDBF4F
:10207000789484B5826084BD84B5816084BD85B563
:10208000826085BD85B5816085BD80916E0081606F
:1020900080936E0010928100809181008260809315
:1020A0008100809181008160809381008091800017
:1020B0008160809380008091B10084608093B10042
:1020C0008091B00081608093B00080919100826027
:1020D0008093910080919100816080939100809124
:1020E00090008160809390008091A1008260809335
:1020F000A1008091A10081608093A1008091A00047
:1021000081608093A00080912101826080932101F1
:102110008091210181608093210180912001816063
:102120008093200180917A00846080937A0080916E
:102130007A00826080937A0080917A008160809337
:102140007A0080917A00806880937A001092C100B2
:1021500014E061E0812F0E94240E1F5F1A30C9F73E
:1021600016E161E0812F0E94240E1F5F1232C9F731
:1021700062E082E00E94240E62E083E00E94240E6E
:1021800062E085E10E94240E62E082E10E94240E5A
:1021900062E083E10E94240E62E084E10E94240E4A
:1021A00060E08EE00E94240EE0910305F0910405AA
:1021B00082E08083E091FF04F09100051082E091BD
:1021C0000105F09102058FEC808310920B05E091E0
:1021D0000705F091080586E08083E0910505F09100
:1021E0000605808180618083E0910505F0910605F8
:1021F000808188608083E0910505F09106058081EB
:1022000080688083E0910505F091060580818F7DCF
:10221000808380E494E09093010280930002809197
:102220006A00836080936A00EC9A88ED95E0909351
:1022300003028093020280916A008C6080936A009E
:10224000ED9A8DE094E090930902809308028091CA
:102250006900806380936900EA9A8AED93E0909325
:10226000070280930602809169008C608093690068
:10227000E99A8CE993E090930B0280930A02809193
:102280006900806C80936900EB9A8EE593E09093EF
:102290000502809304028091690083608093690045
:1022A000E89A96E4C92ED12CEE24E394F12C09E0AF
:1022B00010E021E230E040E250E067EC74E081ECB5
:1022C00094E00E94D7043AE5C32ED12C49E0E42ED5
:1022D000F12C01E210E020E230E047EC54E066E24D
:1022E00072E089EC94E00E948B0560E971E080E087
:1022F00090E00E94290F57E8C52ED12CEE24E394DC
:10230000F12C04E010E027E130E046E150E06FEC12
:1023100074E08FEB94E00E94D70464E873E080E0FF
:1023200090E00E94290F76E9C72ED12CE2E0EE2E34
:10233000F12C05E010E029E130E048E150E06BECE1
:1023400074E08DEB94E00E94D704F4EBCF2ED12CF7
:10235000A4E0EA2EF12C07E110E026E130E04FEC9A
:1023600054E063E275E081ED94E00E948B05B8E7EC
:10237000CB2ED12C15E0E12EF12C09E110E028E163
:1023800030E04BEC54E069EB74E08DEC94E00E949B
:102390008B0501E4C02ED12C89E0E82EF12C01E25E
:1023A00010E020E230E047EC54E066E272E089ECB5
:1023B00094E00E948B0568E670E180E090E00E9466
:1023C000290F90EFC92ED12CEE24E394F12C06E0D6
:1023D00010E02BE130E04AE150E063EC74E08BEB7D
:1023E00094E00E94D7043AEFC32ED12C46E0E42EAD
:1023F000F12C0BE110E02AE130E043EC54E060E91D
:1024000071E085EC94E00E948B0568EB7BE080E056
:1024100090E00E94290F83E894E00E940A0C53EE9A
:10242000452E54E0552E63ED662E64E0762E83EF44
:1024300094E00E94ED01883509F03FC00E94B80683
:10244000BC01990F880B990B0E942C136D837E831E
:102450008F8398870E948F06BC01990F880B990B78
:102460000E942C1369837A838B839C830E94660667
:102470009A8789875F924F92B5EE8B2EB4E09B2EA0
:1024800017EEA12E14E0B12E09EEC02E04E0D02EDE
:102490008BEEE82E84E0F82E0DEE14E09E01275F0F
:1024A0003F4FAE014F5F5F4FBE016B5F7F4F8FEEBF
:1024B00094E00E94E3060F900F900E94B806BC01C2
:1024C000990F880B990B0E942C136D837E838F8349
:1024D00098870E948F06BC01990F880B990B0E9468
:1024E0002C1369837A838B839C830E9466069A8768
:1024F00089877F926F9285ED882E84E0982E97EDE4
:10250000A92E94E0B92E29EDC22E24E0D22E3BED67
:10251000E32E34E0F32E0DED14E09E01275F3F4FD4
:10252000AE014F5F5F4FBE016B5F7F4F8FED94E059
:102530000E94E3066091DD047091DE0448ECC42E35
:10254000D12C54E0E52EF12C07E110E026E130E03B
:102550004FEC54E081ED94E00E948B0568EB7BE04A
:1025600080E090E00E94290F6091DB047091DC0410
:10257000E5E0EE2EF12C09E110E028E130E04BEC33
:1025800054E08DEC94E00E948B0568EB7BE080E0EA
:1025900090E00E94290F6091D9047091DA04F9E06B
:1025A000EF2EF12C01E210E020E230E047EC54E0A5
:1025B00089EC94E00E948B0568EB7BE080E090E082
:1025C0000E94290F6091D3047091D404A6E0EA2EF2
:1025D000F12C0BE110E02AE130E043EC54E085EC13
:1025E00094E00E948B050F900F900E94A5021FCFD0
:1025F000E3EFF4E01382128288EE93E0A0E0B0E013
:1026000084839583A683B78384E192E0918380835A
:1026100085EC90E09587848784EC90E097878687A7
:1026200080EC90E0918B808B81EC90E0938B828B9F
:1026300082EC90E0958B848B86EC90E0978B868B78
:10264000118E128E138E148E08950E94671308F453
:1026500081E00895E89409C097FB3EF49095809539
:10266000709561957F4F8F4F9F4F9923A9F0F92F58
:1026700096E9BB279395F695879577956795B795D6
:10268000F111F8CFFAF4BB0F11F460FF1BC06F5FBC
:102690007F4F8F4F9F4F16C0882311F096E911C0CE
:1026A000772321F09EE8872F762F05C0662371F0EF
:1026B00096E8862F70E060E02AF09A95660F771F03
:1026C000881FDAF7880F9695879597F90895990FDF
:1026D0000008550FAA0BE0E8FEEF16161706E807EC
:1026E000F907C0F012161306E407F50798F0621B0D
:1026F000730B840B950B39F40A2661F0232B242BE2
:10270000252B21F408950A2609F4A140A6958FEF00
:10271000811D811D08950E949E130C940F140E9428
:10272000011438F00E94081420F0952311F00C9445
:10273000F8130C94FE1311240C9443140E942014DB
:1027400070F3959FC1F3950F50E0551F629FF00104
:10275000729FBB27F00DB11D639FAA27F00DB11D1D
:10276000AA1F649F6627B00DA11D661F829F2227A6
:10277000B00DA11D621F739FB00DA11D621F839F2D
:10278000A00D611D221F749F3327A00D611D231F03
:10279000849F600D211D822F762F6A2F11249F5751
:1027A00050409AF0F1F088234AF0EE0FFF1FBB1F54
:1027B000661F771F881F91505040A9F79E3F510513
:1027C00080F00C94F8130C9443145F3FE4F3983EAC
:1027D000D4F3869577956795B795F795E7959F5FBD
:1027E000C1F7FE2B880F911D9695879597F908954F
:1027F00097F99F6780E870E060E008959FEF80ECB4
:10280000089500240A941616170618060906089556
:1028100000240A9412161306140605060895092EBC
:102820000394000C11F4882352F0BB0F40F4BF2B2B
:1028300011F460FF04C06F5F7F4F8F4F9F4F08956B
:1028400057FD9058440F551F59F05F3F71F0479561
:10285000880F97FB991F61F09F3F79F08795089546
:10286000121613061406551FF2CF4695F1DF08C065
:10287000161617061806991FF1CF86957105610582
:1028800008940895E894BB2766277727CB0197F92A
:1028900008950E945414A59F900DB49F900DA49F7D
:1028A000800D911D11240895A29FB001B39FC00116
:1028B000A39F700D811D1124911DB29F700D811D6C
:1028C0001124911D08959F939F770E94B8150F9032
:1028D000002042F49058A2EA2AED3FE049E450E497
:1028E0000E948C140C940F145058BB27AA270E94E6
:1028F0008C140C940F140E94011438F00E940814D8
:1029000020F039F49F3F19F426F40C94FE130EF4D2
:10291000E095E7FB0C94F813E92F0E94201458F37C
:10292000BA17620773078407950720F079F4A6F5B4
:102930000C9442140EF4E0950B2EBA2FA02D0B012F
:10294000B90190010C01CA01A0011124FF27591BF4
:1029500099F0593F50F4503E68F11A16F040A22FFA
:10296000232F342F4427585FF3CF4695379527956B
:10297000A795F0405395C9F77EF41F16BA0B620B6A
:10298000730B840BBAF09150A1F0FF0FBB1F661FB1
:10299000771F881FC2F70EC0BA0F621F731F841FF4
:1029A00048F4879577956795B795F7959E3F08F01A
:1029B000B0CF9395880F08F09927EE0F97958795DC
:1029C0000895DF93DD27B92FBF7740E85FE3161640
:1029D000170648075B0718F4D92F0E9404169F9327
:1029E0008F937F936F930E945216ECE2F1E00E9466
:1029F000D8150E940F142F913F914F915F910E9423
:102A00009E13DD2351F09058A2EA2AED3FE049ECF5
:102A10005FE3D0785D270E948C14DF910C940F1433
:102A20000E9424150C940F140E94081458F00E9460
:102A3000011440F029F45F3F29F00C94F813511170
:102A40000C9443140C94FE130E94201468F39923F1
:102A5000B1F3552391F3951B550BBB27AA2762179A
:102A60007307840738F09F5F5F4F220F331F441FA7
:102A7000AA1FA9F335D00E2E3AF0E0E832D09150DB
:102A80005040E695001CCAF72BD0FE2F29D0660FC8
:102A9000771F881FBB1F261737074807AB07B0E80B
:102AA00009F0BB0B802DBF01FF2793585F4F3AF011
:102AB0009E3F510578F00C94F8130C9443145F3F3B
:102AC000E4F3983ED4F3869577956795B795F79597
:102AD0009F5FC9F7880F911D9695879597F908957F
:102AE000E1E0660F771F881FBB1F6217730784071B
:102AF000BA0720F0621B730B840BBA0BEE1F88F72A
:102B0000E09508950E9489156894B1110C944314BE
:102B100008950E94281488F09F5798F0B92F99279C
:102B2000B751B0F0E1F0660F771F881F991F1AF0B8
:102B3000BA95C9F714C0B13091F00E944214B1E0C7
:102B400008950C944214672F782F8827B85F39F0C6
:102B5000B93FCCF3869577956795B395D9F73EF451
:102B600090958095709561957F4F8F4F9F4F0895F9
:102B7000DF93CF931F930F938B01EC01E9E5F1E015
:102B80000E94D8150E940F149801AE018B01EC0130
:102B900060E070E080E89FE30E9474140E941216C7
:102BA0009801AE010F911F91CF91DF910C949E136C
:102BB000DF93CF931F930F93FF92EF92DF927B01EE
:102BC0008C01689406C0DA2EEF010E949E13FE016C
:102BD000E894A5912591359145915591A6F3EF0182
:102BE0000E948C14FE019701A801DA9469F7DF9026
:102BF000EF90FF900F911F91CF91DF9108950E9468
:102C0000671308F48FEF08959B01AC0160E070E05A
:102C100080E89FE30C94101519F416F40C94FE133D
:102C20000C945B160E942814B8F39923C9F3B6F3E9
:102C30009F57550B87FF0E9469160024A0E640EAC3
:102C4000900180585695979528F4805C660F771F01
:102C5000881F20F026173707480730F4621B730BD4
:102C6000840B202931294A2BA695179407942025F7
:102C700031254A2758F7660F771F881F20F026173F
:102C80003707480730F4620B730B840B200D311D9E
:102C9000411DA09581F7B901842F9158880F969511
:102CA000879508959B01AC010C948B130E946713C8
:102CB000880B990B08959F3F31F0915020F4879530
:102CC00077956795B795880F911D9695879597F994
:102CD000089591505040660F771F881FD2F70895CE
:102CE00097FB072E16F4009407D077FD09D00E94B9
:102CF000AE1607FC05D03EF4909581959F4F089540
:102D0000709561957F4F0895A1E21A2EAA1BBB1BF7
:102D1000FD010DC0AA1FBB1FEE1FFF1FA217B307A7
:102D2000E407F50720F0A21BB30BE40BF50B661FBD
:102D3000771F881F991F1A9469F760957095809581
:102D400090959B01AC01BD01CF010895EE0FFF1FCF
:102D5000881F8BBF0790F691E02D1994AA1BBB1B0F
:102D600051E107C0AA1FBB1FA617B70710F0A61B8B
:102D7000B70B881F991F5A95A9F780959095BC01AC
:102D8000CD01089581E090E0F8940C94C716F89472
:022D9000FFCF73
:102D9200320A320A320A320A320A320A320A320A51
:102DA200000000003C02330ADE0183020F02ED0143
:102DB20001026572726F72206F6E206469726563C0
:102DC20074696F6E00536F6D657468696E67206910
:102DD2006E2077726973744C4820656E636F646508
:102DE200722077656E742077726F6E6700536F6D15
:102DF200657468696E6720696E20777269737420E2
:102E0200656E636F6465722077656E742077726F8A
:102E12006E6700696E6974207377697463682065F0
:102E220072726F720053686F756C6465722073659D
:102E320074757020636F6D706C65746500656C628B
:102E42006F7720736574757020636F6D706C657435
:102E52006500777269737420736574757020636F8F
:102E62006D706C657465005772697374204C4820EC
:102E7200736574757020636F6D706C657465005A4C
:102E8200656420736574757020636F6D706C657412
:102E9200650079617720736574757020636F6D705A
:102EA2006C65746500696E69742077656E7420764E
:102EB2006572792077726F6E6700524947485400F5
:102EC2004C45465400766F6572207920636F6F72AD
:102ED20064696E61617420696E2074757373656EC6
:102EE200206465203020656E203931353A006275E4
:102EF2006974656E2062657265696B2070616E6EC1
:102F0200656B6F656B2C204C455A454E2100766FE0
:102F12006572205A20636F6F7264696E61617420FA
:102F2200696E2074757373656E2064652030206548
:102F32006E203730303A00766F6572205820636F0A
:102F42006F7264696E61617420696E207475737347
:102F5200656E206465202D36303020656E20363057
:102F6200303A005468657461546172676574203D3B
:102F720020002072616400616C706861203D200055
:102F8200546865746131203D200020677261646578
:102F92006E00546865746132203D200067616D6D7A
:102FA20061203D2000546865746133203D20004C4F
:102FB20031323A007A706F6C733A0078706F6C73CA
:102FC2003A007468657461313A00746865746132FC
:102FD2003A007468657461333A0053686F756465CA
:102FE200723A00456C6C65626F6F6700506F6C736C
:102FF2003A20005A45443A2000636F6F7264696E4A
:103002006174656E2062756974656E2062657265B1
:10301200696B00616C6C2073657475707320636FEB
:103022006D706C657465000D0A006E616E00696EEC
:0630320066006F766600E7
:00000001FF
