:100000000C948A010C94310C0C94060C0C94DB0BB0
:100010000C94B00B0C94850B0C945A0B0C942F0B76
:100020000C94040B0C94BB010C94BB010C94BB010D
:100030000C94BB010C94BB010C94BB010C94BB0150
:100040000C94BB010C94BB010C94BB010C94BB0140
:100050000C94BB010C94BB010C94BB010C94BA0A28
:100060000C94BB010C94EF040C94C5040C94BB01DC
:100070000C94BB010C94BB010C94BB010C94BB0110
:100080000C94BB010C94BB010C94BB010C94BB0100
:100090000C94BB010C94BB010C94BB010C94250582
:1000A0000C94BB010C94BB010C94BB010C94BB01E0
:1000B0000C94BB010C94BB010C94BB010C94BB01D0
:1000C0000C94BB010C94BB010C94BB010C94BB01C0
:1000D0000C94BB010C94BB010C94BB010C94BB01B0
:1000E0000C94BB01EB08EE08DD08E108E5082509E2
:1000F000F208F608FC08000904090A090E091209A9
:10010000250918091C0920099E09A309A809B20993
:10011000BC09350AC609CE09D609E009EA09F4097D
:10012000030A0D0A350A170A210A2B0A0C94A8099A
:100130000C94C9030C94DD080C94FD020C94EE079A
:100140000C94E0090C9425020C94E1080C94EE0840
:100150000C942E030C941C030C94FC080C94E508DE
:100160000C94BD010C9429070C946C020C9442046D
:100170000C94170A0C94EB080C9475040C941C094D
:100180000C94CC010C94E0010C94030A0C94F40937
:100190000C940E090C9402100C94A3090C942009E1
:1001A0000C94F6080C9400090C94BC090C940F04F0
:1001B0000C94F9020C949E090C9407030C94800390
:1001C0000C94B2090C9404090C94EA090C94FA02F8
:1001D0000C9418090C94210A0C94CE090C94350A3D
:1001E0000C94EF070C942B0A0C9412090C94F2084F
:1001F0000C9425090C940D0A0C940A090C94000324
:100200000C94C6090C94EE010C94D6090000210050
:10021000240027002A002D003000330001010000D7
:10022000040107010A0100002200250028002B001C
:100230002E003100340002010000050108010B010D
:1002400005050505070508080808020202020A0A52
:100250000808040404040101010101010101030370
:10026000030303030303040707070C0C0C0C0C0C1B
:100270000C0C0202020206060606060606060B0B18
:100280000B0B0B0B0B0B0102102020080810204059
:10029000102040800201020108040201010204084A
:1002A00010204080804020100804020180040201D8
:1002B0008040201008040201080402010102040821
:1002C00010204080010204081020408000000A0B2A
:1002D00002090C0D0E0807030401000000000000D5
:1002E000000000000000000000000000000000000E
:1002F00000000000000000001211100000000000CB
:1003000000000000000000000000000000000000ED
:100310000000021011241FBECFEFD1E2DEBFCDBF1F
:1003200000E00CBF25E0A4E6B4E001C01D92A33BB1
:10033000B207E1F714E0A0E0B2E0E8E2F1E200E0A9
:100340000BBF02C007900D92A436B107D9F711E098
:10035000CAE8D1E000E006C021970109802FFE0124
:100360000E947110C938D10780E00807A9F70E94E0
:100370005C0C0C9492100C940000FC01538D448D85
:10038000252F30E0842F90E0821B930B541710F040
:10039000CF96089501970895FC01918D828D98174D
:1003A00061F0828DDF01A80FB11D5D968C91928D59
:1003B0009F5F9F73928F90E008958FEF9FEF089556
:1003C000FC01918D828D981731F0828DE80FF11D1F
:1003D000858D90E008958FEF9FEF0895FC01918D3A
:1003E000228D892F90E0805C9F4F821B91098F7333
:1003F0009927089581E095E00E94EE0121E0892B84
:1004000009F420E0822F0895FC01848DDF01A80FFC
:10041000B11DA35ABF4F2C91848D90E001968F732C
:100420009927848FA689B7892C93A089B1898C914B
:1004300080648C93938D848D981306C00288F38911
:10044000E02D80818F7D80830895EF92FF920F933E
:100450001F93CF93DF93EC0181E0888F9B8D8C8D70
:10046000981305C0E889F989808185FD24C0F62E9E
:100470000B8D10E00F5F1F4F0F731127E02E8C8D37
:10048000E8120CC00FB607FCFACFE889F989808121
:1004900085FFF5CFCE010E940402F1CF8B8DFE01C6
:1004A000E80FF11DE35AFF4FF0820B8FEA89FB89B9
:1004B0008081806207C0EE89FF896083E889F989BD
:1004C00080818064808381E090E0DF91CF911F91F3
:1004D0000F91FF90EF900895CF93DF93EC01888DFB
:1004E0008823C9F0EA89FB89808185FD05C0A88938
:1004F000B9898C9186FD0FC00FB607FCF5CF8081BE
:1005000085FFF2CFA889B9898C9185FFEDCFCE0107
:100510000E940402E7CFDF91CF91089580E090E040
:10052000892B21F00E94FA01811125C080E090E022
:10053000892B41F080E090E0892B21F00E9400009F
:1005400081111CC080E090E0892B41F080E090E0B8
:10055000892B21F00E940000811113C080E090E0FF
:10056000892BA1F080E090E0892B81F00E940000AF
:1005700081110AC008950E940000D8CF0E94000097
:10058000E1CF0E940000EACF0C940000089585EDB1
:100590008093BC008091BC0084FDFCCF1092DB04F2
:1005A00008954091B504262F30E0240F311D2132EB
:1005B0003105DCF42091DB042430C9F4FC0180E037
:1005C00090E0861758F43091B5042191DC01AD56C6
:1005D000BB4FA30FB11D2C930196F3CF8091B504AF
:1005E000680F6093B50480E0089581E0089582E08B
:1005F000089508958FEF9FEF08958FEF9FEF08956F
:100600008091920490E09195819591090895CF93FE
:10061000DF931F921F92CDB7DEB7CB01642F4983C2
:100620005A830E94D1024981842F5A81952F0F90BD
:100630000F90DF91CF910895CF93DF931F92CDB7A5
:10064000DEB7698361E0CE0101960E94D10281E0AC
:1006500090E00F90DF91CF910895089580E090E0B1
:1006600008950E948D100F931F93CF93DF93EC0199
:10067000062F142F8A31910511F154F4863191051A
:10068000A1F0489731F5109272041092710425C0C0
:100690008E31910579F080329105B1F04C97C9F413
:1006A00010928B0410928A0418C010927C0410924D
:1006B0007B0413C010928F0410928E040EC010920F
:1006C000700410926F0409C010926E0410926D04B1
:1006D00004C084E593E00E942C0860E08C2F0E9407
:1006E000BC0860E0802F0E94BC0860E0812F0E945F
:1006F000BC0810926C04DF91CF911F910F91089567
:1007000080916A0490916B04019729F180917D0496
:1007100090917E048C34944044F049E050E061E2D2
:1007200070E080E290E00C94330320917D043091DE
:100730007E0480917504909176042817390721F47E
:1007400080916C04882349F380916D0490916E042C
:100750008230910531F480917D0490917E04019660
:100760000EC0019789F480917D0490917E04181643
:10077000190674F480917D0490917E040197909302
:100780007E0480937D04089587E693E00C942C0802
:10079000089580916404909165040197F9F0209187
:1007A0008304309184048091730490917404281719
:1007B000390769F480916C04811109C046E050E06A
:1007C0006BE170E08AE190E00E94330324C08091E5
:1007D0006F04909170048230910531F4809183040C
:1007E0009091840401960EC0019789F4809183044E
:1007F000909184041816190674F4809183049091E2
:1008000084040197909384048093830404C08BE84C
:1008100093E00E942C088FEA93E00C942C088091BE
:10082000900490919104892B41F448E050E06FE1ED
:1008300070E08EE190E00C94330380918E049091EF
:100840008F048230910531F480919004909191044D
:1008500001960EC0019789F48091900490919104C3
:100860001816190674F480919004909191040197E0
:10087000909391048093900408958BEB93E00C94F3
:100880002C08089580918C0490918D04892B41F45B
:1008900047E050E06DE170E08CE190E00C943303B0
:1008A00080918A0490918B048230910531F480917B
:1008B0008C0490918D0401960EC0019789F480916B
:1008C0008C0490918D041816190674F480918C0490
:1008D00090918D04019790938D0480938C040895DA
:1008E00083EE93E00C942C08089580916804909115
:1008F0006904019729F180918104909182048634E2
:100900009A4044F044E050E067E170E086E190E016
:100910000C943303209181043091820480917904F6
:1009200090917A042817390721F480916C04882368
:1009300049F380917B0490917C048230910531F4DD
:100940008091810490918204019616C00197C9F4A8
:1009500080918104909182041816190644F044E0B5
:1009600050E067E170E086E190E00E9433038091FF
:100970008104909182040197909382048093810472
:10098000089589E094E00C942C081F920F920FB602
:100990000F9211240BB60F922F933F934F935F93B7
:1009A0006F937F938F939F93AF93BF93EF93FF9337
:1009B00081E095E00E940402FF91EF91BF91AF9119
:1009C0009F918F917F916F915F914F913F912F9167
:1009D0000F900BBE0F900FBE0F901F9018951F9297
:1009E0000F920FB60F9211240BB60F922F938F9385
:1009F0009F93EF93FF93E0911105F0911205808191
:100A0000E0911705F091180582FD12C09081809148
:100A10001A058F5F8F7320911B05821751F0E091AB
:100A20001A05F0E0EF5FFA4F958F80931A0501C029
:100A30008081FF91EF919F918F912F910F900BBE2D
:100A40000F900FBE0F901F9018951F920F920FB628
:100A50000F9211240BB60F922F933F934F935F93F6
:100A60006F937F938F939F93AF93BF93EF93FF9376
:100A70008091B900887F803609F49CC068F588327F
:100A800009F45BC090F4803109F454C038F4882331
:100A900009F4F6C0883009F44DC0F6C0883109F475
:100AA0004CC0803209F45DC0EFC0803409F468C0E6
:100AB00048F4803309F455C0883309F0E5C08093C9
:100AC000DA04D8C0803509F44FC0883509F45DC018
:100AD000883409F0D9C0D6C0883909F4C7C0A8F451
:100AE000883709F467C038F4883609F463C0803762
:100AF00009F460C0C9C0883809F4B8C0803909F465
:100B00005FC0803809F0C0C05BC0803B09F486C07C
:100B100038F4803A09F466C0883A09F47FC0B4C05A
:100B2000803C09F4A7C0883C09F4A4C0883B09F4C0
:100B30008AC0AAC08091000510C09091FF048091E6
:100B4000FE04981770F5E091FF0481E08E0F80930A
:100B5000FF04F0E0E252FB4F80818093BB0085EC04
:100B600086C08093DA048EC0E091FF0481E08E0F8E
:100B70008093FF048091BB00F0E0E252FB4F808342
:100B80009091FF048091FE046EC0E091FF0481E02B
:100B90008E0F8093FF048091BB00F0E0E252FB4F88
:100BA00080838091DD0481116DC081E08093DC043D
:100BB00084EA61C083E08093DB041092D904CFCF34
:100BC0008091D904803208F051C0E091D90481E0CD
:100BD0008E0F8093D9048091BB00F0E0E754FB4F67
:100BE0008083BDCF85EC8093BC001092DB048091A4
:100BF000D904803230F4E091D904F0E0E754FB4F9F
:100C000010826091D90470E0E091B704F091B804CB
:100C100089EB94E019951092D90436C084E0809352
:100C2000DB041092B6041092B504E091B304F09185
:100C3000B40419958091B504811105C081E08093B9
:100C4000B50410929304E091B60481E08E0F809376
:100C5000B604F0E0ED56FB4F80818093BB0090918D
:100C6000B6048091B504981708F479CF85E880938D
:100C7000BC000AC085EC8093BC001092DB0404C069
:100C80001092DA040E94C702FF91EF91BF91AF91D9
:100C90009F918F917F916F915F914F913F912F9194
:100CA0000F900BBE0F900FBE0F901F9018958A31BA
:100CB000910511F154F486319105A1F0489731F571
:100CC000709372046093710408958E31910579F0E8
:100CD00080329105B1F04C97C9F470938B04609306
:100CE0008A04089570937C0460937B040895709344
:100CF0008F0460938E0408957093700460936F0462
:100D0000089570936E0460936D04089584E593E0F4
:100D10000C942C08EF92FF920F931F93CF93DF93C5
:100D20001F92CDB7DEB7F82EE62E890161E070E0A4
:100D300049830E945706B8014981842F0E94750992
:100D400060E08F2D0E94BC0861E08E2D0E94BC08DF
:100D500081E080936C040F90DF91CF911F910F91F0
:100D6000FF90EF900895EF92FF920F931F93CF9310
:100D7000DF931F92CDB7DEB7F82EE62E890162E031
:100D800070E049830E945706B8014981842F0E9470
:100D9000750961E08F2D0E94BC0860E08E2D0E94D5
:100DA000BC0881E080936C040F90DF91CF911F917C
:100DB0000F91FF90EF900895CF92DF92EF920F93F3
:100DC000CF93DF93E90110926C04FC01718360837F
:100DD000FA0180819181861797079CF482E394E061
:100DE0000E942C0862E070E0CE010E945706B60116
:100DF0008E2D0E94750961E08C2F0E94BC0860E076
:100E000018C0FA018081918168177907DCF488E3C2
:100E100094E00E942C0861E070E0CE010E94570629
:100E2000B6018E2D0E94750960E08C2F0E94BC08CF
:100E300061E0802FDF91CF910F91EF90DF90CF9005
:100E40000C94BC08DF91CF910F91EF90DF90CF9081
:100E50000895CF92DF92EF92FF920F931F938091AC
:100E6000660490916704019701F580917F04909149
:100E7000800401969093800480937F04609188049D
:100E8000709189046A5D7D4F8CE3C82ED12C99E066
:100E9000E92EF12C01E210E020E230E04DE754E0D1
:100EA00085E794E00E94DC0634C080917F04909135
:100EB00080048237994074F045E050E069E170E0C9
:100EC00088E190E01F910F91FF90EF90DF90CF901D
:100ED0000C94330320917F04309180048091770437
:100EE000909178042817390721F480916C048823A5
:100EF00019F3809171049091720482309105C9F4C4
:100F000080917F0490918004019690938004809357
:100F10007F0480917F049091800463E070E00E94E0
:100F20003B10892B79F58091880490918904019672
:100F30001AC00197E9F480917F0490918004019791
:100F40009093800480937F0480917F04909180042B
:100F500063E070E00E943B10892BA1F4809188042B
:100F600090918904019790938904809388040AC022
:100F70008DE394E01F910F91FF90EF90DF90CF9061
:100F80000C942C081F910F91FF90EF90DF90CF9061
:100F900008953FB7F8948091A3059091A405A0917E
:100FA000A505B091A60526B5A89B05C02F3F19F051
:100FB0000196A11DB11D3FBFBA2FA92F982F8827D9
:100FC000820F911DA11DB11DBC01CD0142E0660F34
:100FD000771F881F991F4A95D1F708950895CF92DA
:100FE000DF92EF92FF920F931F93CF93DF936C01E9
:100FF0007A018B01C0E0D0E0CE15DF0589F0D80181
:101000006D918D01D601ED91FC910190F081E02D63
:10101000C6011995892B11F47E0102C02196ECCFEF
:10102000C701DF91CF911F910F91FF90EF90DF905B
:10103000CF900895009769F0FC0101900020E9F736
:101040003197AF01481B590BBC0181E095E00C942E
:10105000EF0780E090E00895CF93DF930E941A0895
:10106000EC0185E692E00E941A088C0F9D1FDF912B
:10107000CF9108958F929F92AF92BF92CF92DF92BD
:10108000EF92FF920F931F93CF93DF93CDB7DEB70D
:10109000A1970FB6F894DEBF0FBECDBF6C01990FBC
:1010A000EE08FF08F7FE31C0E0910105F09102055E
:1010B0000190F081E02D6DE281E095E019958C01C1
:1010C00022273327A9012C193D094E095F0919A2CE
:1010D000CE0181967C019AE0892E912CA12CB12C15
:1010E000CA01B901A50194010E944F10605DF7018A
:1010F00062937F01211531054105510589F7CF0123
:101100000E941A08080F191F1EC0A701960119A2F4
:101110008E010F5D1F4F8AE0C82ED12CE12CF12CDF
:10112000CA01B901A70196010E944F10605DF80144
:1011300062938F01211531054105510589F7CF01D2
:101140000E941A088C0185E692E00E941A08800F1E
:10115000911FA1960FB6F894DEBF0FBECDBFDF91F1
:10116000CF911F910F91FF90EF90DF90CF90BF90A4
:10117000AF909F908F900895362F90E0FC01E4533C
:10118000FD4F4491FC01EA57FD4F2491FC01E05CC6
:10119000FD4F9491992309F46BC0442309F455C081
:1011A00050E0FA013197E231F10508F04EC088278E
:1011B000EE58FF4F8F4F0C947110809180008F7705
:1011C00007C0809180008F7D03C080918000877F61
:1011D000809380003AC084B58F7702C084B58F7D3C
:1011E00084BD33C08091B0008F7703C08091B00080
:1011F0008F7D8093B00029C0809190008F7707C0C9
:10120000809190008F7D03C080919000877F8093B4
:1012100090001BC08091A0008F7707C08091A00034
:101220008F7D03C08091A000877F8093A0000DC0B8
:10123000809120018F7707C0809120018F7D03C0AE
:1012400080912001877F80932001E92FF0E0EE0F4D
:10125000FF1FEA5DFD4FA591B4918FB7F894EC9113
:10126000311103C020952E2301C02E2B2C938FBF4C
:101270000895CF93DF9390E0FC01EA57FD4F24914E
:10128000FC01E05CFD4F8491882361F190E0880FC0
:10129000991FFC01E45FFD4FC591D491FC01EA5D0B
:1012A000FD4FA591B491611109C09FB7F894888151
:1012B000209582238883EC912E230BC0623061F449
:1012C0009FB7F8943881822F809583238883EC918F
:1012D0002E2B2C939FBF06C08FB7F894E8812E2B3E
:1012E00028838FBFDF91CF9108951F93CF93DF9312
:1012F000182FEB0161E00E943909209711F460E09A
:1013000004C0CF3FD10539F461E0812FDF91CF9147
:101310001F910C94BC08E12FF0E0E453FD4FE491E1
:101320004E2F50E0FA013197E231F10508F09DC0EF
:101330008827EC57FF4F8F4F0C94711084B580684D
:1013400084BDC7BD97C084B5806284BDC8BD92C04E
:1013500080918000806880938000D0938900C09342
:10136000880088C080918000806280938000D09344
:101370008B00C0938A007EC080918000886080933B
:101380008000D0938D00C0938C0074C08091B00019
:1013900080688093B000C093B3006CC08091B000AF
:1013A00080628093B000C093B40064C080919000CC
:1013B000806880939000D0939900C09398005AC0A1
:1013C00080919000806280939000D0939B00C093A6
:1013D0009A0050C080919000886080939000D093D4
:1013E0009D00C0939C0046C08091A00080688093BF
:1013F000A0008091A0008F7B8093A000D093A900D3
:10140000C093A80037C08091A00080628093A000A4
:10141000D093AB00C093AA002DC08091A00088603B
:101420008093A000D093AD00C093AC0023C0809106
:101430002001806880932001D0932901C093280166
:1014400019C080912001806280932001D0932B01EC
:10145000C0932A010FC080912001886080932001F1
:10146000D0932D01C0932C0105C0C038D1050CF0DC
:101470004BCF45CFDF91CF911F9108958F929F92CF
:10148000AF92BF92CF92DF92EF92FF926B017C01FD
:101490000E94C9074B015C01C114D104E104F104AD
:1014A000F1F00E94C907DC01CB0188199909AA094A
:1014B000BB09883E9340A105B10570F321E0C21A33
:1014C000D108E108F10888EE880E83E0981EA11C7F
:1014D000B11CC114D104E104F10419F7DDCFFF9070
:1014E000EF90DF90CF90BF90AF909F908F90089536
:1014F000CF92DF92EF92FF920F93CF93DF936C0125
:101500007B01C42F952FD22F842F0E945706B6013E
:10151000802F0E94750982E0E816F10431F461E041
:101520008C2F0E94BC0860E008C0EA94EF2841F4C8
:1015300060E08C2F0E94BC0861E08D2F0E94BC08E7
:1015400064E670E080E090E00E943E0A60E08C2F4C
:101550000E94BC0860E08D2F0E94BC0860E070E033
:10156000802FDF91CF910F91FF90EF90DF90CF9080
:101570000C9475091F920F920FB60F9211242F939E
:101580003F938F939F93AF93BF9380919F059091CB
:10159000A005A091A105B091A20530919E0523E080
:1015A000230F2D3720F40196A11DB11D05C026E89B
:1015B000230F0296A11DB11D20939E0580939F05C8
:1015C0009093A005A093A105B093A2058091A305D7
:1015D0009091A405A091A505B091A6050196A11D25
:1015E000B11D8093A3059093A405A093A505B09386
:1015F000A605BF91AF919F918F913F912F910F9031
:101600000FBE0F901F9018951F920F920FB60F925A
:1016100011240BB60F922F933F934F935F936F93C9
:101620007F938F939F93AF93BF93EF93FF93E0913B
:101630000E02F0910F021995FF91EF91BF91AF91BA
:101640009F918F917F916F915F914F913F912F91DA
:101650000F900BBE0F900FBE0F901F9018951F920A
:101660000F920FB60F9211240BB60F922F933F9348
:101670004F935F936F937F938F939F93AF93BF939A
:10168000EF93FF93E0910C02F0910D021995FF91F9
:10169000EF91BF91AF919F918F917F916F915F91EA
:1016A0004F913F912F910F900BBE0F900FBE0F9057
:1016B0001F9018951F920F920FB60F9211240BB620
:1016C0000F922F933F934F935F936F937F938F93DB
:1016D0009F93AF93BF93EF93FF93E0910202F0913A
:1016E00003021995FF91EF91BF91AF919F918F9157
:1016F0007F916F915F914F913F912F910F900BBE12
:101700000F900FBE0F901F9018951F920F920FB65B
:101710000F9211240BB60F922F933F934F935F9329
:101720006F937F938F939F93AF93BF93EF93FF93A9
:10173000E0910002F09101021995FF91EF91BF91A4
:10174000AF919F918F917F916F915F914F913F9159
:101750002F910F900BBE0F900FBE0F901F901895FA
:101760001F920F920FB60F9211240BB60F922F9368
:101770003F934F935F936F937F938F939F93AF9319
:10178000BF93EF93FF93E0910A02F0910B0219953A
:10179000FF91EF91BF91AF919F918F917F916F9149
:1017A0005F914F913F912F910F900BBE0F900FBE05
:1017B0000F901F9018951F920F920FB60F92112441
:1017C0000BB60F922F933F934F935F936F937F933B
:1017D0008F939F93AF93BF93EF93FF93E091080292
:1017E000F09109021995FF91EF91BF91AF919F91EF
:1017F0008F917F916F915F914F913F912F910F90BA
:101800000BBE0F900FBE0F901F9018951F920F9256
:101810000FB60F9211240BB60F922F933F934F9355
:101820005F936F937F938F939F93AF93BF93EF9348
:10183000FF93E0910602F09107021995FF91EF9155
:10184000BF91AF919F918F917F916F915F914F91D8
:101850003F912F910F900BBE0F900FBE0F901F90D6
:1018600018951F920F920FB60F9211240BB60F927C
:101870002F933F934F935F936F937F938F939F9398
:10188000AF93BF93EF93FF93E0910402F0910502B1
:101890001995FF91EF91BF91AF919F918F917F919A
:1018A0006F915F914F913F912F910F900BBE0F90D1
:1018B0000FBE0F901F901895789484B5826084BDF8
:1018C00084B5816084BD85B5826085BD85B5816044
:1018D00085BD80916E00816080936E0010928100C2
:1018E000809181008260809381008091810081607D
:1018F000809381008091800081608093800080913E
:10190000B10084608093B1008091B00081608093C9
:10191000B00080919100826080939100809191004D
:10192000816080939100809190008160809390000D
:101930008091A10082608093A1008091A1008160CC
:101940008093A1008091A00081608093A00080918D
:101950002101826080932101809121018160809327
:1019600021018091200181608093200180917A0083
:10197000846080937A0080917A00826080937A00FC
:1019800080917A00816080937A0080917A008068EB
:1019900080937A001092C100C4E061E08C2F0E9415
:1019A0003909CF5FCA30C9F7C6E161E08C2F0E94C8
:1019B0003909CF5FC232C9F762E082E00E9439097B
:1019C00062E083E00E94390962E085E10E94390902
:1019D00062E082E10E94390962E083E10E943909F4
:1019E00062E084E10E94390960E08EE00E943909DA
:1019F000E0911105F091120582E08083E0910D05E0
:101A0000F0910E051082E0910F05F09110058FEC1A
:101A1000808310921905E0911505F091160586E076
:101A20008083E0911305F0911405808180618083AB
:101A3000E0911305F0911405808188608083E09126
:101A40001305F0911405808180688083E09113056F
:101A5000F091140580818F7D808385E794E09093D9
:101A600001028093000280916A00836080936A0083
:101A7000EC9A89E297E090930302809302028091AE
:101A80006A008C6080936A00ED9A82E494E09093FF
:101A90000902809308028091690080638093690045
:101AA000EA9A8FE094E09093070280930602809177
:101AB00069008C6080936900E99A89EC93E09093C7
:101AC0000B0280930A0280916900806C8093690008
:101AD000EB9A80E893E09093050280930402809152
:101AE0006900836080936900E89A84E392E00E9431
:101AF0002C08D1E0AA24A394B12CE2E78E2EE9E0D1
:101B00009E2E81E095E00E94EE01181619060CF059
:101B100076C281E095E00E94CC01C82FE0910105DA
:101B2000F09102050190F081E02D682F81E095E0B1
:101B3000199585E692E00E941A08CC3609F4DDC0BA
:101B40000CF079C0C23609F405C10CF053C0C93499
:101B500009F42FC1C13609F04EC28CE792E00E9411
:101B60002C0804EBC02ED12C84E0E82EF12C07E1E8
:101B700010E026E130E041E854E063E275E089E7F7
:101B800094E00E94DC0698E7C92ED12C25E0E22ED5
:101B9000F12C09E110E028E130E04FE754E069EB77
:101BA00074E087E794E00E94DC0631E4C32ED12C78
:101BB00049E0E42EF12C01E210E020E230E04DE7B4
:101BC00054E066E272E085E794E00E94DC065AEF9A
:101BD000C52ED12C66E0E62EF12C0BE110E02AE1B7
:101BE00030E043E854E066E572E083E794E00E9469
:101BF000DC067CC0C43609F49EC00CF4CEC0C636E8
:101C000009F0F9C124EB30E044E050E067E170E016
:101C100086E190E00E94B30628E730E045E050E01E
:101C200069E170E088E190E00E948A06D093850423
:101C30008EEB92E0E2C1C53709F46EC0B4F4C3374D
:101C400011F10CF0AFC0C23709F0D5C121E430E08A
:101C500049E050E061E270E080E290E00E94B3066B
:101C6000D0936C048FE892E0C8C1C83709F490C0E3
:101C7000CA3709F488C0C63709F0BDC180917D0418
:101C800090917E0493C088E692E00E942C08C6E101
:101C900060E08C2F0E94BC08CF5FC332C9F7C4E05C
:101CA00060E070E08C2F0E947509CF5FCA30C1F7E9
:101CB00088E692E0A2C180917B0490917C04892BFC
:101CC00009F49DC180916F0490917004892B09F4EF
:101CD00096C180916D0490916E04892B09F48FC197
:101CE00064E670E080E090E00E943E0A809171041A
:101CF00090917204892BF9F682C121E430E049E029
:101D000050E061E270E080E290E00E948A06D093A9
:101D10006C048CE992E071C12AEF30E046E050E0BB
:101D20006BE170E08AE190E00E94B306D0936C040E
:101D300088EA92E062C12AEF30E046E050E06BE1D1
:101D400070E08AE190E00E948A06D0936C0482EBF6
:101D500092E053C124EB30E044E050E067E170E0F2
:101D600086E190E00E948A0628E730E045E050E0F6
:101D700069E170E088E190E00E94B306D0938504A9
:101D80008DEC92E03AC180918304909184040EC05E
:101D9000809181049091820409C080917F04909188
:101DA000800404C080917B0490917C040E943A08D6
:101DB00026C18EED92E00E942C08B0926B04A09296
:101DC0006A04EE24EA94FE2C80917D0490917E04B6
:101DD0008E159F0589F0E0907D04F0907E0409E067
:101DE00010E021E230E040E250E061E070E086E4A3
:101DF00090E00E94780AE8CF10927E0410927D0451
:101E000010926B0410926A0481EF92E00E942C08F9
:101E1000AAE5CA2ED12CB9E0EB2EF12C01E210E09C
:101E200020E230E04DE754E066E272E085E794E0BE
:101E30000E94DC0660E971E080E090E00E943E0ACA
:101E4000B0926904A0926804EE24EA94FE2C80917A
:101E50008104909182048E159F0589F0E0908104A1
:101E6000F090820404E010E027E130E046E150E029
:101E700061E070E087E890E00E94780AE8CF109275
:101E8000820410928104109269041092680484E024
:101E900093E00E942C0864E873E080E090E00E94E8
:101EA0003E0AB0926704A0926604EE24EA94FE2CE7
:101EB00080917F04909180048E159F0589F0E090B9
:101EC0007F04F090800405E010E029E130E048E173
:101ED00050E062E070E086E990E00E94780AE8CF86
:101EE0009092800480927F0410926704109266049E
:101EF0008CE193E00E942C0824EBC22ED12C34E01C
:101F0000E32EF12C07E110E026E130E041E854E057
:101F100063E275E089E794E00E94DC0648E7C42E9E
:101F2000D12C55E0E52EF12C09E110E028E130E05C
:101F30004FE754E069EB74E087E794E00E94DC0629
:101F400061E4C62ED12C79E0E72EF12C01E210E0FD
:101F500020E230E04DE754E066E272E085E794E08D
:101F60000E94DC0668E670E180E090E00E943E0A94
:101F7000B0926504A0926404EE24EA94FE2C809151
:101F80008304909184048E159F0589F0E09083046A
:101F9000F090840406E010E02BE130E04AE150E0EC
:101FA00061E070E080EF90E00E94780AE8CF109244
:101FB000840410928304109265041092640481E3F7
:101FC00093E00E942C088AEFC82ED12C96E0E92ECF
:101FD000F12C0BE110E02AE130E043E854E060E945
:101FE00071E083E794E00E94DC0668EB7BE080E030
:101FF00090E00E943E0A84E493E00E942C080E9434
:102000008E027FCDE1E0F5E01382128288EE93E04C
:10201000A0E0B0E084839583A683B78324E132E017
:102020003183208325EC30E03587248724EC30E0B1
:102030003787268720EC30E0318B208B21EC30E095
:10204000338B228B22EC30E0358B248B26EC30E076
:10205000378B268B118E128E138E148EE7EAF5E0E5
:102060001382128284839583A683B78386E292E0EB
:1020700091838083089597FB072E16F4009407D070
:1020800077FD09D00E94791007FC05D03EF49095A9
:1020900081959F4F0895709561957F4F0895A1E2B6
:1020A0001A2EAA1BBB1BFD010DC0AA1FBB1FEE1FD2
:1020B000FF1FA217B307E407F50720F0A21BB30B1D
:1020C000E40BF50B661F771F881F991F1A9469F799
:1020D00060957095809590959B01AC01BD01CF01F5
:1020E0000895EE0FFF1F881F8BBF0790F691E02D1C
:1020F0001994AA1BBB1B51E107C0AA1FBB1FA6173F
:10210000B70710F0A61BB70B881F991F5A95A9F7A0
:1021100080959095BC01CD01089581E090E0F89400
:082120000C949210F894FFCF1B
:10212800EE07EE07EE07EE07EE07EE07EE07EE07FF
:10213800000000002502EF07BD016C02EE01CC0192
:10214800E001000000001C0307032E03F90200034E
:10215800FD02FA02496E7365727420746865206E18
:10216800656564656420636F6D6D616E6473206678
:102178006F7220636F6D6D756E69636174696F6EE0
:102188002E696E6F000D0A0053746F7070696E6768
:1021980020616C6C206D6F746F727300726573656B
:1021A8007474696E6720706F736974696F6E006DFF
:1021B8006F76696E67205269676874006D6F76691B
:1021C8006E67206C656674006D6F76696E67207542
:1021D80070006D6F76696E6720646F776E006D6F43
:1021E80076696E6720666F7277617264006D6F76CC
:1021F800696E67206261636B776172647300696EF0
:10220800697469616C6973696E6720526F626F7473
:102218000079617720736574757020636F6D706CD9
:102228006574650053686F756C64657220736574B6
:10223800757020636F6D706C65746500656C626F96
:102248007720736574757020636F6D706C65746545
:10225800005A656420736574757020636F6D706CC7
:1022680065746500696E76616C696420636F6D6D75
:10227800616E64006572726F72206F6E206469729D
:10228800656374696F6E00536F6D657468696E6716
:1022980020696E2079617720656E636F64657220AE
:1022A80077656E742077726F6E6700536F6D657413
:1022B80068696E6720696E207A656420656E636F51
:1022C8006465722077656E742077726F6E67005A46
:1022D800454420656E636F64657200536F6D657465
:1022E80068696E6720696E2077726973744C48203C
:1022F800656E636F6465722077656E742077726FA0
:102308006E6700536F6D657468696E6720696E202B
:10231800777269737420656E636F64657220776580
:102328006E742077726F6E6700536F6D657468699D
:102338006E6720696E2073686F75646C65722065BE
:102348006E636F6465722077656E742077726F6E46
:1023580067005249474854004C45465400536F6D36
:10236800657468696E6720696E20656C626F772096
:10237800656E636F6465722077656E742077726F1F
:042388006E6700007C
:00000001FF
